{
  "_format": "hh-sol-artifact-1",
  "contractName": "NFT",
  "sourceName": "contracts/NFT.sol",
  "abi": [
    {
      "inputs": [
        {
          "internalType": "string",
          "name": "_name",
          "type": "string"
        },
        {
          "internalType": "string",
          "name": "_symbol",
          "type": "string"
        }
      ],
      "stateMutability": "nonpayable",
      "type": "constructor"
    },
    {
      "anonymous": false,
      "inputs": [
        {
          "indexed": true,
          "internalType": "address",
          "name": "owner",
          "type": "address"
        },
        {
          "indexed": true,
          "internalType": "address",
          "name": "approved",
          "type": "address"
        },
        {
          "indexed": true,
          "internalType": "uint256",
          "name": "tokenId",
          "type": "uint256"
        }
      ],
      "name": "Approval",
      "type": "event"
    },
    {
      "anonymous": false,
      "inputs": [
        {
          "indexed": true,
          "internalType": "address",
          "name": "owner",
          "type": "address"
        },
        {
          "indexed": true,
          "internalType": "address",
          "name": "operator",
          "type": "address"
        },
        {
          "indexed": false,
          "internalType": "bool",
          "name": "approved",
          "type": "bool"
        }
      ],
      "name": "ApprovalForAll",
      "type": "event"
    },
    {
      "anonymous": false,
      "inputs": [
        {
          "indexed": false,
          "internalType": "uint256",
          "name": "tokenId",
          "type": "uint256"
        }
      ],
      "name": "MintedUsingSignature",
      "type": "event"
    },
    {
      "anonymous": false,
      "inputs": [
        {
          "indexed": true,
          "internalType": "bytes32",
          "name": "role",
          "type": "bytes32"
        },
        {
          "indexed": true,
          "internalType": "bytes32",
          "name": "previousAdminRole",
          "type": "bytes32"
        },
        {
          "indexed": true,
          "internalType": "bytes32",
          "name": "newAdminRole",
          "type": "bytes32"
        }
      ],
      "name": "RoleAdminChanged",
      "type": "event"
    },
    {
      "anonymous": false,
      "inputs": [
        {
          "indexed": true,
          "internalType": "bytes32",
          "name": "role",
          "type": "bytes32"
        },
        {
          "indexed": true,
          "internalType": "address",
          "name": "account",
          "type": "address"
        },
        {
          "indexed": true,
          "internalType": "address",
          "name": "sender",
          "type": "address"
        }
      ],
      "name": "RoleGranted",
      "type": "event"
    },
    {
      "anonymous": false,
      "inputs": [
        {
          "indexed": true,
          "internalType": "bytes32",
          "name": "role",
          "type": "bytes32"
        },
        {
          "indexed": true,
          "internalType": "address",
          "name": "account",
          "type": "address"
        },
        {
          "indexed": true,
          "internalType": "address",
          "name": "sender",
          "type": "address"
        }
      ],
      "name": "RoleRevoked",
      "type": "event"
    },
    {
      "anonymous": false,
      "inputs": [
        {
          "indexed": true,
          "internalType": "address",
          "name": "from",
          "type": "address"
        },
        {
          "indexed": true,
          "internalType": "address",
          "name": "to",
          "type": "address"
        },
        {
          "indexed": true,
          "internalType": "uint256",
          "name": "tokenId",
          "type": "uint256"
        }
      ],
      "name": "Transfer",
      "type": "event"
    },
    {
      "inputs": [],
      "name": "DEFAULT_ADMIN_ROLE",
      "outputs": [
        {
          "internalType": "bytes32",
          "name": "",
          "type": "bytes32"
        }
      ],
      "stateMutability": "view",
      "type": "function"
    },
    {
      "inputs": [
        {
          "internalType": "address",
          "name": "to",
          "type": "address"
        },
        {
          "internalType": "uint256",
          "name": "tokenId",
          "type": "uint256"
        }
      ],
      "name": "approve",
      "outputs": [],
      "stateMutability": "nonpayable",
      "type": "function"
    },
    {
      "inputs": [
        {
          "internalType": "address",
          "name": "owner",
          "type": "address"
        }
      ],
      "name": "balanceOf",
      "outputs": [
        {
          "internalType": "uint256",
          "name": "",
          "type": "uint256"
        }
      ],
      "stateMutability": "view",
      "type": "function"
    },
    {
      "inputs": [
        {
          "internalType": "uint256",
          "name": "tokenId",
          "type": "uint256"
        }
      ],
      "name": "burn",
      "outputs": [],
      "stateMutability": "nonpayable",
      "type": "function"
    },
    {
      "inputs": [
        {
          "internalType": "uint256",
          "name": "tokenId",
          "type": "uint256"
        }
      ],
      "name": "getApproved",
      "outputs": [
        {
          "internalType": "address",
          "name": "",
          "type": "address"
        }
      ],
      "stateMutability": "view",
      "type": "function"
    },
    {
      "inputs": [
        {
          "internalType": "bytes32",
          "name": "role",
          "type": "bytes32"
        }
      ],
      "name": "getRoleAdmin",
      "outputs": [
        {
          "internalType": "bytes32",
          "name": "",
          "type": "bytes32"
        }
      ],
      "stateMutability": "view",
      "type": "function"
    },
    {
      "inputs": [
        {
          "internalType": "bytes32",
          "name": "role",
          "type": "bytes32"
        },
        {
          "internalType": "uint256",
          "name": "index",
          "type": "uint256"
        }
      ],
      "name": "getRoleMember",
      "outputs": [
        {
          "internalType": "address",
          "name": "",
          "type": "address"
        }
      ],
      "stateMutability": "view",
      "type": "function"
    },
    {
      "inputs": [
        {
          "internalType": "bytes32",
          "name": "role",
          "type": "bytes32"
        }
      ],
      "name": "getRoleMemberCount",
      "outputs": [
        {
          "internalType": "uint256",
          "name": "",
          "type": "uint256"
        }
      ],
      "stateMutability": "view",
      "type": "function"
    },
    {
      "inputs": [
        {
          "internalType": "bytes32",
          "name": "role",
          "type": "bytes32"
        },
        {
          "internalType": "address",
          "name": "account",
          "type": "address"
        }
      ],
      "name": "grantRole",
      "outputs": [],
      "stateMutability": "nonpayable",
      "type": "function"
    },
    {
      "inputs": [
        {
          "internalType": "bytes32",
          "name": "role",
          "type": "bytes32"
        },
        {
          "internalType": "address",
          "name": "account",
          "type": "address"
        }
      ],
      "name": "hasRole",
      "outputs": [
        {
          "internalType": "bool",
          "name": "",
          "type": "bool"
        }
      ],
      "stateMutability": "view",
      "type": "function"
    },
    {
      "inputs": [
        {
          "internalType": "address",
          "name": "owner",
          "type": "address"
        },
        {
          "internalType": "address",
          "name": "operator",
          "type": "address"
        }
      ],
      "name": "isApprovedForAll",
      "outputs": [
        {
          "internalType": "bool",
          "name": "",
          "type": "bool"
        }
      ],
      "stateMutability": "view",
      "type": "function"
    },
    {
      "inputs": [
        {
          "internalType": "bytes[]",
          "name": "data",
          "type": "bytes[]"
        }
      ],
      "name": "multicall",
      "outputs": [
        {
          "internalType": "bytes[]",
          "name": "results",
          "type": "bytes[]"
        }
      ],
      "stateMutability": "nonpayable",
      "type": "function"
    },
    {
      "inputs": [],
      "name": "name",
      "outputs": [
        {
          "internalType": "string",
          "name": "",
          "type": "string"
        }
      ],
      "stateMutability": "view",
      "type": "function"
    },
    {
      "inputs": [
        {
          "internalType": "uint256",
          "name": "tokenId",
          "type": "uint256"
        }
      ],
      "name": "ownerOf",
      "outputs": [
        {
          "internalType": "address",
          "name": "",
          "type": "address"
        }
      ],
      "stateMutability": "view",
      "type": "function"
    },
    {
      "inputs": [
        {
          "internalType": "bytes32",
          "name": "role",
          "type": "bytes32"
        },
        {
          "internalType": "address",
          "name": "account",
          "type": "address"
        }
      ],
      "name": "renounceRole",
      "outputs": [],
      "stateMutability": "nonpayable",
      "type": "function"
    },
    {
      "inputs": [
        {
          "internalType": "bytes32",
          "name": "role",
          "type": "bytes32"
        },
        {
          "internalType": "address",
          "name": "account",
          "type": "address"
        }
      ],
      "name": "revokeRole",
      "outputs": [],
      "stateMutability": "nonpayable",
      "type": "function"
    },
    {
      "inputs": [
        {
          "internalType": "address",
          "name": "to",
          "type": "address"
        },
        {
          "internalType": "string",
          "name": "uri",
          "type": "string"
        }
      ],
      "name": "safeMint",
      "outputs": [],
      "stateMutability": "nonpayable",
      "type": "function"
    },
    {
      "inputs": [
        {
          "internalType": "address",
          "name": "from",
          "type": "address"
        },
        {
          "internalType": "address",
          "name": "to",
          "type": "address"
        },
        {
          "internalType": "uint256",
          "name": "tokenId",
          "type": "uint256"
        }
      ],
      "name": "safeTransferFrom",
      "outputs": [],
      "stateMutability": "nonpayable",
      "type": "function"
    },
    {
      "inputs": [
        {
          "internalType": "address",
          "name": "from",
          "type": "address"
        },
        {
          "internalType": "address",
          "name": "to",
          "type": "address"
        },
        {
          "internalType": "uint256",
          "name": "tokenId",
          "type": "uint256"
        },
        {
          "internalType": "bytes",
          "name": "_data",
          "type": "bytes"
        }
      ],
      "name": "safeTransferFrom",
      "outputs": [],
      "stateMutability": "nonpayable",
      "type": "function"
    },
    {
      "inputs": [
        {
          "internalType": "address",
          "name": "operator",
          "type": "address"
        },
        {
          "internalType": "bool",
          "name": "approved",
          "type": "bool"
        }
      ],
      "name": "setApprovalForAll",
      "outputs": [],
      "stateMutability": "nonpayable",
      "type": "function"
    },
    {
      "inputs": [
        {
          "components": [
            {
              "internalType": "bytes32",
              "name": "uuid",
              "type": "bytes32"
            },
            {
              "internalType": "address",
              "name": "to",
              "type": "address"
            },
            {
              "internalType": "string",
              "name": "uri",
              "type": "string"
            },
            {
              "internalType": "uint256",
              "name": "price",
              "type": "uint256"
            },
            {
              "internalType": "address",
              "name": "currency",
              "type": "address"
            },
            {
              "internalType": "address",
              "name": "paymentReceiver",
              "type": "address"
            }
          ],
          "internalType": "struct SignatureMint.MintVoucher",
          "name": "voucher",
          "type": "tuple"
        },
        {
          "internalType": "bytes",
          "name": "signature",
          "type": "bytes"
        }
      ],
      "name": "signatureMint",
      "outputs": [],
      "stateMutability": "payable",
      "type": "function"
    },
    {
      "inputs": [
        {
          "internalType": "bytes4",
          "name": "interfaceId",
          "type": "bytes4"
        }
      ],
      "name": "supportsInterface",
      "outputs": [
        {
          "internalType": "bool",
          "name": "",
          "type": "bool"
        }
      ],
      "stateMutability": "view",
      "type": "function"
    },
    {
      "inputs": [],
      "name": "symbol",
      "outputs": [
        {
          "internalType": "string",
          "name": "",
          "type": "string"
        }
      ],
      "stateMutability": "view",
      "type": "function"
    },
    {
      "inputs": [
        {
          "internalType": "uint256",
          "name": "index",
          "type": "uint256"
        }
      ],
      "name": "tokenByIndex",
      "outputs": [
        {
          "internalType": "uint256",
          "name": "",
          "type": "uint256"
        }
      ],
      "stateMutability": "view",
      "type": "function"
    },
    {
      "inputs": [
        {
          "internalType": "address",
          "name": "owner",
          "type": "address"
        },
        {
          "internalType": "uint256",
          "name": "index",
          "type": "uint256"
        }
      ],
      "name": "tokenOfOwnerByIndex",
      "outputs": [
        {
          "internalType": "uint256",
          "name": "",
          "type": "uint256"
        }
      ],
      "stateMutability": "view",
      "type": "function"
    },
    {
      "inputs": [
        {
          "internalType": "uint256",
          "name": "tokenId",
          "type": "uint256"
        }
      ],
      "name": "tokenURI",
      "outputs": [
        {
          "internalType": "string",
          "name": "",
          "type": "string"
        }
      ],
      "stateMutability": "view",
      "type": "function"
    },
    {
      "inputs": [],
      "name": "totalSupply",
      "outputs": [
        {
          "internalType": "uint256",
          "name": "",
          "type": "uint256"
        }
      ],
      "stateMutability": "view",
      "type": "function"
    },
    {
      "inputs": [
        {
          "internalType": "address",
          "name": "from",
          "type": "address"
        },
        {
          "internalType": "address",
          "name": "to",
          "type": "address"
        },
        {
          "internalType": "uint256",
          "name": "tokenId",
          "type": "uint256"
        }
      ],
      "name": "transferFrom",
      "outputs": [],
      "stateMutability": "nonpayable",
      "type": "function"
    },
    {
      "inputs": [
        {
          "components": [
            {
              "internalType": "bytes32",
              "name": "uuid",
              "type": "bytes32"
            },
            {
              "internalType": "address",
              "name": "to",
              "type": "address"
            },
            {
              "internalType": "string",
              "name": "uri",
              "type": "string"
            },
            {
              "internalType": "uint256",
              "name": "price",
              "type": "uint256"
            },
            {
              "internalType": "address",
              "name": "currency",
              "type": "address"
            },
            {
              "internalType": "address",
              "name": "paymentReceiver",
              "type": "address"
            }
          ],
          "internalType": "struct SignatureMint.MintVoucher",
          "name": "voucher",
          "type": "tuple"
        },
        {
          "internalType": "bytes",
          "name": "signature",
          "type": "bytes"
        }
      ],
      "name": "verify",
      "outputs": [
        {
          "internalType": "bool",
          "name": "success",
          "type": "bool"
        },
        {
          "internalType": "address",
          "name": "signer",
          "type": "address"
        }
      ],
      "stateMutability": "view",
      "type": "function"
    }
  ],
  "bytecode": "0x6101406040523480156200001257600080fd5b5060405162003cab38038062003cab8339810160408190526200003591620004b5565b6040518060400160405280601081526020016f14da59db985d1d5c99535a5b9d13919560821b815250604051806040016040528060018152602001603160f81b815250838381600090805190602001906200009292919062000342565b508051620000a890600190602084019062000342565b5050825160209384012082519284019290922060e08390526101008190524660a0818152604080517f8b73c3c69bb8fe3d512ecc4cf759cc79239f7b179b0ffacaa9a75d522b39400f818901819052818301979097526060810194909452608080850193909352308483018190528151808603909301835260c09485019091528151919096012090529290925261012052506001600c556200014c600033620001d9565b620001787f9f2df0fed2c77648de5860a4cc508cd0818c85b8b8a1ab4ceeef8d981c8956a633620001d9565b620001a47f8502233096d909befbda0999bb8ea2f3a6be3c138b9fbf003752a4c8bce86f6c33620001d9565b620001d17f8502233096d909befbda0999bb8ea2f3a6be3c138b9fbf003752a4c8bce86f6c6000620001d9565b50506200055c565b620001e58282620001e9565b5050565b6200020082826200022c60201b62000fb71760201c565b6000828152600e60209081526040909120620002279183906200103d620002d0821b17901c565b505050565b6000828152600d602090815260408083206001600160a01b038516845290915290205460ff16620001e5576000828152600d602090815260408083206001600160a01b03851684529091529020805460ff191660011790556200028c3390565b6001600160a01b0316816001600160a01b0316837f2f8788117e7eff1d82e926ec794901d17c78024a50270940304540a733656f0d60405160405180910390a45050565b6000620002e7836001600160a01b038416620002f0565b90505b92915050565b60008181526001830160205260408120546200033957508154600181810184556000848152602080822090930184905584548482528286019093526040902091909155620002ea565b506000620002ea565b82805462000350906200051f565b90600052602060002090601f016020900481019282620003745760008555620003bf565b82601f106200038f57805160ff1916838001178555620003bf565b82800160010185558215620003bf579182015b82811115620003bf578251825591602001919060010190620003a2565b50620003cd929150620003d1565b5090565b5b80821115620003cd5760008155600101620003d2565b634e487b7160e01b600052604160045260246000fd5b600082601f8301126200041057600080fd5b81516001600160401b03808211156200042d576200042d620003e8565b604051601f8301601f19908116603f01168101908282118183101715620004585762000458620003e8565b816040528381526020925086838588010111156200047557600080fd5b600091505b838210156200049957858201830151818301840152908201906200047a565b83821115620004ab5760008385830101525b9695505050505050565b60008060408385031215620004c957600080fd5b82516001600160401b0380821115620004e157600080fd5b620004ef86838701620003fe565b935060208501519150808211156200050657600080fd5b506200051585828601620003fe565b9150509250929050565b600181811c908216806200053457607f821691505b602082108114156200055657634e487b7160e01b600052602260045260246000fd5b50919050565b60805160a05160c05160e05161010051610120516136ff620005ac60003960006129f001526000612a3f01526000612a1a015260006129730152600061299d015260006129c701526136ff6000f3fe6080604052600436106101c25760003560e01c806370a08231116100f7578063b88d4fde11610095578063d204c45e11610064578063d204c45e14610511578063d547741f14610531578063e7b92dcd14610551578063e985e9c51461059057600080fd5b8063b88d4fde1461049e578063bcf913c7146104be578063c87b56dd146104d1578063ca15c873146104f157600080fd5b806395d89b41116100d157806395d89b4114610427578063a217fddf1461043c578063a22cb46514610451578063ac9650d81461047157600080fd5b806370a08231146103c75780639010d07c146103e757806391d148541461040757600080fd5b80632f2ff15d1161016457806342842e0e1161013e57806342842e0e1461034757806342966c68146103675780634f6ccce7146103875780636352211e146103a757600080fd5b80632f2ff15d146102e75780632f745c591461030757806336568abe1461032757600080fd5b8063095ea7b3116101a0578063095ea7b31461025657806318160ddd1461027857806323b872dd14610297578063248a9ca3146102b757600080fd5b806301ffc9a7146101c757806306fdde03146101fc578063081812fc1461021e575b600080fd5b3480156101d357600080fd5b506101e76101e2366004612e78565b6105d9565b60405190151581526020015b60405180910390f35b34801561020857600080fd5b506102116105ea565b6040516101f39190612eed565b34801561022a57600080fd5b5061023e610239366004612f00565b61067c565b6040516001600160a01b0390911681526020016101f3565b34801561026257600080fd5b50610276610271366004612f35565b610709565b005b34801561028457600080fd5b506008545b6040519081526020016101f3565b3480156102a357600080fd5b506102766102b2366004612f5f565b61081f565b3480156102c357600080fd5b506102896102d2366004612f00565b6000908152600d602052604090206001015490565b3480156102f357600080fd5b50610276610302366004612f9b565b610851565b34801561031357600080fd5b50610289610322366004612f35565b610876565b34801561033357600080fd5b50610276610342366004612f9b565b61090c565b34801561035357600080fd5b50610276610362366004612f5f565b61098a565b34801561037357600080fd5b50610276610382366004612f00565b6109a5565b34801561039357600080fd5b506102896103a2366004612f00565b610a1f565b3480156103b357600080fd5b5061023e6103c2366004612f00565b610ab2565b3480156103d357600080fd5b506102896103e2366004612fc7565b610b29565b3480156103f357600080fd5b5061023e610402366004612fe2565b610bb0565b34801561041357600080fd5b506101e7610422366004612f9b565b610bcf565b34801561043357600080fd5b50610211610bfa565b34801561044857600080fd5b50610289600081565b34801561045d57600080fd5b5061027661046c366004613012565b610c09565b34801561047d57600080fd5b5061049161048c366004613049565b610c14565b6040516101f391906130be565b3480156104aa57600080fd5b506102766104b93660046131ac565b610d09565b6102766104cc366004613228565b610d41565b3480156104dd57600080fd5b506102116104ec366004612f00565b610e97565b3480156104fd57600080fd5b5061028961050c366004612f00565b610ea2565b34801561051d57600080fd5b5061027661052c3660046132c7565b610eb9565b34801561053d57600080fd5b5061027661054c366004612f9b565b610f12565b34801561055d57600080fd5b5061057161056c366004613228565b610f37565b6040805192151583526001600160a01b039091166020830152016101f3565b34801561059c57600080fd5b506101e76105ab366004613329565b6001600160a01b03918216600090815260056020908152604080832093909416825291909152205460ff1690565b60006105e482611052565b92915050565b6060600080546105f990613353565b80601f016020809104026020016040519081016040528092919081815260200182805461062590613353565b80156106725780601f1061064757610100808354040283529160200191610672565b820191906000526020600020905b81548152906001019060200180831161065557829003601f168201915b5050505050905090565b600061068782611077565b6106ed5760405162461bcd60e51b815260206004820152602c60248201527f4552433732313a20617070726f76656420717565727920666f72206e6f6e657860448201526b34b9ba32b73a103a37b5b2b760a11b60648201526084015b60405180910390fd5b506000908152600460205260409020546001600160a01b031690565b600061071482610ab2565b9050806001600160a01b0316836001600160a01b031614156107825760405162461bcd60e51b815260206004820152602160248201527f4552433732313a20617070726f76616c20746f2063757272656e74206f776e656044820152603960f91b60648201526084016106e4565b336001600160a01b038216148061079e575061079e81336105ab565b6108105760405162461bcd60e51b815260206004820152603860248201527f4552433732313a20617070726f76652063616c6c6572206973206e6f74206f7760448201527f6e6572206e6f7220617070726f76656420666f7220616c6c000000000000000060648201526084016106e4565b61081a8383611094565b505050565b61082a335b82611102565b6108465760405162461bcd60e51b81526004016106e49061338e565b61081a8383836111ec565b6000828152600d602052604090206001015461086c81611393565b61081a838361139d565b600061088183610b29565b82106108e35760405162461bcd60e51b815260206004820152602b60248201527f455243373231456e756d657261626c653a206f776e657220696e646578206f7560448201526a74206f6620626f756e647360a81b60648201526084016106e4565b506001600160a01b03919091166000908152600660209081526040808320938352929052205490565b6001600160a01b038116331461097c5760405162461bcd60e51b815260206004820152602f60248201527f416363657373436f6e74726f6c3a2063616e206f6e6c792072656e6f756e636560448201526e103937b632b9903337b91039b2b63360891b60648201526084016106e4565b61098682826113bf565b5050565b61081a83838360405180602001604052806000815250610d09565b6109ae33610824565b610a135760405162461bcd60e51b815260206004820152603060248201527f4552433732314275726e61626c653a2063616c6c6572206973206e6f74206f7760448201526f1b995c881b9bdc88185c1c1c9bdd995960821b60648201526084016106e4565b610a1c816113e1565b50565b6000610a2a60085490565b8210610a8d5760405162461bcd60e51b815260206004820152602c60248201527f455243373231456e756d657261626c653a20676c6f62616c20696e646578206f60448201526b7574206f6620626f756e647360a01b60648201526084016106e4565b60088281548110610aa057610aa06133df565b90600052602060002001549050919050565b6000818152600260205260408120546001600160a01b0316806105e45760405162461bcd60e51b815260206004820152602960248201527f4552433732313a206f776e657220717565727920666f72206e6f6e657869737460448201526832b73a103a37b5b2b760b91b60648201526084016106e4565b60006001600160a01b038216610b945760405162461bcd60e51b815260206004820152602a60248201527f4552433732313a2062616c616e636520717565727920666f7220746865207a65604482015269726f206164647265737360b01b60648201526084016106e4565b506001600160a01b031660009081526003602052604090205490565b6000828152600e60205260408120610bc890836113ea565b9392505050565b6000918252600d602090815260408084206001600160a01b0393909316845291905290205460ff1690565b6060600180546105f990613353565b6109863383836113f6565b60608167ffffffffffffffff811115610c2f57610c2f613120565b604051908082528060200260200182016040528015610c6257816020015b6060815260200190600190039081610c4d5790505b50905060005b82811015610d0257610cd230858584818110610c8657610c866133df565b9050602002810190610c9891906133f5565b8080601f0160208091040260200160405190810160405280939291908181526020018383808284376000920191909152506114c592505050565b828281518110610ce457610ce46133df565b60200260200101819052508080610cfa90613452565b915050610c68565b5092915050565b610d133383611102565b610d2f5760405162461bcd60e51b81526004016106e49061338e565b610d3b848484846114ea565b50505050565b6002600c541415610d945760405162461bcd60e51b815260206004820152601f60248201527f5265656e7472616e637947756172643a207265656e7472616e742063616c6c0060448201526064016106e4565b6002600c556000610da4600f5490565b9050610db184848461151d565b50600080610dc56040870160208801612fc7565b6001600160a01b031614610de857610de36040860160208701612fc7565b610dea565b335b9050610df585611596565b610dff81836117ab565b610e4a82610e1060408801886133f5565b8080601f0160208091040260200160405190810160405280939291908181526020018383808284376000920191909152506118ea92505050565b610e58600f80546001019055565b6040518281527fb8b9d0f8c5b19485e3733b6dfc9cbfe92c2dd7dae31f89ede3f12ad8c1c6dfc69060200160405180910390a150506001600c55505050565b60606105e482611975565b6000818152600e602052604081206105e490611ae4565b7f9f2df0fed2c77648de5860a4cc508cd0818c85b8b8a1ab4ceeef8d981c8956a6610ee381611393565b6000610eee600f5490565b9050610efe600f80546001019055565b610f0884826117ab565b610d3b81846118ea565b6000828152600d6020526040902060010154610f2d81611393565b61081a83836113bf565b600080610f8584848080601f016020809104026020016040519081016040528093929190818152602001838380828437600092019190915250610f7f9250899150611aee9050565b90611bca565b85356000908152600b602052604090205490915060ff16158015610fad5750610fad81611bee565b9150935093915050565b610fc18282610bcf565b610986576000828152600d602090815260408083206001600160a01b03851684529091529020805460ff19166001179055610ff93390565b6001600160a01b0316816001600160a01b0316837f2f8788117e7eff1d82e926ec794901d17c78024a50270940304540a733656f0d60405160405180910390a45050565b6000610bc8836001600160a01b038416611c1a565b60006001600160e01b03198216635a05180f60e01b14806105e457506105e482611c69565b6000908152600260205260409020546001600160a01b0316151590565b600081815260046020526040902080546001600160a01b0319166001600160a01b03841690811790915581906110c982610ab2565b6001600160a01b03167f8c5be1e5ebec7d5bd14f71427d1e84f3dd0314c0f7b2291e5b200ac8c7c3b92560405160405180910390a45050565b600061110d82611077565b61116e5760405162461bcd60e51b815260206004820152602c60248201527f4552433732313a206f70657261746f7220717565727920666f72206e6f6e657860448201526b34b9ba32b73a103a37b5b2b760a11b60648201526084016106e4565b600061117983610ab2565b9050806001600160a01b0316846001600160a01b031614806111c057506001600160a01b0380821660009081526005602090815260408083209388168352929052205460ff165b806111e45750836001600160a01b03166111d98461067c565b6001600160a01b0316145b949350505050565b826001600160a01b03166111ff82610ab2565b6001600160a01b0316146112635760405162461bcd60e51b815260206004820152602560248201527f4552433732313a207472616e736665722066726f6d20696e636f72726563742060448201526437bbb732b960d91b60648201526084016106e4565b6001600160a01b0382166112c55760405162461bcd60e51b8152602060048201526024808201527f4552433732313a207472616e7366657220746f20746865207a65726f206164646044820152637265737360e01b60648201526084016106e4565b6112d0838383611c8e565b6112db600082611094565b6001600160a01b038316600090815260036020526040812080546001929061130490849061346d565b90915550506001600160a01b0382166000908152600360205260408120805460019290611332908490613484565b909155505060008181526002602052604080822080546001600160a01b0319166001600160a01b0386811691821790925591518493918716917fddf252ad1be2c89b69c2b068fc378daa952ba7f163c4a11628f55a4df523b3ef91a4505050565b610a1c8133611d98565b6113a78282610fb7565b6000828152600e6020526040902061081a908261103d565b6113c98282611dfc565b6000828152600e6020526040902061081a9082611e63565b610a1c81611e78565b6000610bc88383611eb8565b816001600160a01b0316836001600160a01b031614156114585760405162461bcd60e51b815260206004820152601960248201527f4552433732313a20617070726f766520746f2063616c6c65720000000000000060448201526064016106e4565b6001600160a01b03838116600081815260056020908152604080832094871680845294825291829020805460ff191686151590811790915591519182527f17307eab39ab6107e8899845ad3d59bd9653f200f220920489ca2b5937696c31910160405180910390a3505050565b6060610bc883836040518060600160405280602781526020016136cc60279139611ee2565b6114f58484846111ec565b61150184848484611fbf565b610d3b5760405162461bcd60e51b81526004016106e49061349c565b600080600061152d868686610f37565b9092509050816115715760405162461bcd60e51b815260206004820152600f60248201526e24b73b30b634b2103b37bab1b432b960891b60448201526064016106e4565b85356000908152600b60205260409020805460ff191660011790559150509392505050565b606081013560006115ad60a0840160808501612fc7565b905060006115c160c0850160a08601612fc7565b9050826115ce5750505050565b6001600160a01b03821673eeeeeeeeeeeeeeeeeeeeeeeeeeeeeeeeeeeeeeee14156116f35782341461163b5760405162461bcd60e51b815260206004820152601660248201527518dbdc9c9958dd081c1c9a58d9481b9bdd081cd95b9d60521b60448201526064016106e4565b600061164d60c0860160a08701612fc7565b6001600160a01b03168460405160006040518083038185875af1925050503d8060008114611697576040519150601f19603f3d011682016040523d82523d6000602084013e61169c565b606091505b50509050806116ed5760405162461bcd60e51b815260206004820152601760248201527f7061796d656e74207265636569766572206661696c656400000000000000000060448201526064016106e4565b50610d3b565b336001600160a01b038216141561170a5750505050565b61171a60a0850160808601612fc7565b6040516323b872dd60e01b81523360048201526001600160a01b0383811660248301526044820186905291909116906323b872dd90606401602060405180830381600087803b15801561176c57600080fd5b505af1158015611780573d6000803e3d6000fd5b505050506040513d601f19601f820116820180604052508101906117a491906134ee565b5050505050565b6001600160a01b0382166118015760405162461bcd60e51b815260206004820181905260248201527f4552433732313a206d696e7420746f20746865207a65726f206164647265737360448201526064016106e4565b61180a81611077565b156118575760405162461bcd60e51b815260206004820152601c60248201527f4552433732313a20746f6b656e20616c7265616479206d696e7465640000000060448201526064016106e4565b61186360008383611c8e565b6001600160a01b038216600090815260036020526040812080546001929061188c908490613484565b909155505060008181526002602052604080822080546001600160a01b0319166001600160a01b03861690811790915590518392907fddf252ad1be2c89b69c2b068fc378daa952ba7f163c4a11628f55a4df523b3ef908290a45050565b6118f382611077565b6119565760405162461bcd60e51b815260206004820152602e60248201527f45524337323155524953746f726167653a2055524920736574206f66206e6f6e60448201526d32bc34b9ba32b73a103a37b5b2b760911b60648201526084016106e4565b6000828152600a60209081526040909120825161081a92840190612d93565b606061198082611077565b6119e65760405162461bcd60e51b815260206004820152603160248201527f45524337323155524953746f726167653a2055524920717565727920666f72206044820152703737b732bc34b9ba32b73a103a37b5b2b760791b60648201526084016106e4565b6000828152600a6020526040812080546119ff90613353565b80601f0160208091040260200160405190810160405280929190818152602001828054611a2b90613353565b8015611a785780601f10611a4d57610100808354040283529160200191611a78565b820191906000526020600020905b815481529060010190602001808311611a5b57829003601f168201915b505050505090506000611a9660408051602081019091526000815290565b9050805160001415611aa9575092915050565b815115611adb578082604051602001611ac392919061350b565b60405160208183030381529060405292505050919050565b6111e4846120cc565b60006105e4825490565b60006105e47f06b649bcdba226195cba9cad54aac117855d46fb024cdfeb3f80b699d0ca54838335611b266040860160208701612fc7565b611b3360408701876133f5565b604051611b4192919061353a565b6040519081900390206060870135611b5f60a0890160808a01612fc7565b611b6f60c08a0160a08b01612fc7565b6040805160208101989098528701959095526001600160a01b039384166060870152608086019290925260a0850152811660c08401521660e082015261010001604051602081830303815290604052805190602001206121a3565b6000806000611bd985856121f1565b91509150611be681612261565b509392505050565b60006105e47f9f2df0fed2c77648de5860a4cc508cd0818c85b8b8a1ab4ceeef8d981c8956a683610bcf565b6000818152600183016020526040812054611c61575081546001818101845560008481526020808220909301849055845484825282860190935260409020919091556105e4565b5060006105e4565b60006001600160e01b03198216637965db0b60e01b14806105e457506105e48261241c565b611c99838383612441565b6001600160a01b03831615801590611cb957506001600160a01b03821615155b8015611ced5750611ceb7f8502233096d909befbda0999bb8ea2f3a6be3c138b9fbf003752a4c8bce86f6c6000610bcf565b155b1561081a57611d1c7f8502233096d909befbda0999bb8ea2f3a6be3c138b9fbf003752a4c8bce86f6c84610bcf565b80611d4c5750611d4c7f8502233096d909befbda0999bb8ea2f3a6be3c138b9fbf003752a4c8bce86f6c83610bcf565b61081a5760405162461bcd60e51b815260206004820152601a60248201527f6f6e6c79207472616e7366657220726f6c6520686f6c6465727300000000000060448201526064016106e4565b611da28282610bcf565b61098657611dba816001600160a01b031660146124f9565b611dc58360206124f9565b604051602001611dd692919061354a565b60408051601f198184030181529082905262461bcd60e51b82526106e491600401612eed565b611e068282610bcf565b15610986576000828152600d602090815260408083206001600160a01b0385168085529252808320805460ff1916905551339285917ff6391f5c32d9c69d2a47ea670b442974b53935d1edc7fd64eb21e047a839171b9190a45050565b6000610bc8836001600160a01b038416612695565b611e8181612788565b6000818152600a602052604090208054611e9a90613353565b159050610a1c576000818152600a60205260408120610a1c91612e17565b6000826000018281548110611ecf57611ecf6133df565b9060005260206000200154905092915050565b60606001600160a01b0384163b611f4a5760405162461bcd60e51b815260206004820152602660248201527f416464726573733a2064656c65676174652063616c6c20746f206e6f6e2d636f6044820152651b9d1c9858dd60d21b60648201526084016106e4565b600080856001600160a01b031685604051611f6591906135bf565b600060405180830381855af49150503d8060008114611fa0576040519150601f19603f3d011682016040523d82523d6000602084013e611fa5565b606091505b5091509150611fb582828661282f565b9695505050505050565b60006001600160a01b0384163b156120c157604051630a85bd0160e11b81526001600160a01b0385169063150b7a02906120039033908990889088906004016135db565b602060405180830381600087803b15801561201d57600080fd5b505af192505050801561204d575060408051601f3d908101601f1916820190925261204a9181019061360e565b60015b6120a7573d80801561207b576040519150601f19603f3d011682016040523d82523d6000602084013e612080565b606091505b50805161209f5760405162461bcd60e51b81526004016106e49061349c565b805181602001fd5b6001600160e01b031916630a85bd0160e11b1490506111e4565b506001949350505050565b60606120d782611077565b61213b5760405162461bcd60e51b815260206004820152602f60248201527f4552433732314d657461646174613a2055524920717565727920666f72206e6f60448201526e3732bc34b9ba32b73a103a37b5b2b760891b60648201526084016106e4565b600061215260408051602081019091526000815290565b905060008151116121725760405180602001604052806000815250610bc8565b8061217c84612868565b60405160200161218d92919061350b565b6040516020818303038152906040529392505050565b60006105e46121b0612966565b8360405161190160f01b6020820152602281018390526042810182905260009060620160405160208183030381529060405280519060200120905092915050565b6000808251604114156122285760208301516040840151606085015160001a61221c87828585612a8d565b9450945050505061225a565b8251604014156122525760208301516040840151612247868383612b7a565b93509350505061225a565b506000905060025b9250929050565b60008160048111156122755761227561362b565b141561227e5750565b60018160048111156122925761229261362b565b14156122e05760405162461bcd60e51b815260206004820152601860248201527f45434453413a20696e76616c6964207369676e6174757265000000000000000060448201526064016106e4565b60028160048111156122f4576122f461362b565b14156123425760405162461bcd60e51b815260206004820152601f60248201527f45434453413a20696e76616c6964207369676e6174757265206c656e6774680060448201526064016106e4565b60038160048111156123565761235661362b565b14156123af5760405162461bcd60e51b815260206004820152602260248201527f45434453413a20696e76616c6964207369676e6174757265202773272076616c604482015261756560f01b60648201526084016106e4565b60048160048111156123c3576123c361362b565b1415610a1c5760405162461bcd60e51b815260206004820152602260248201527f45434453413a20696e76616c6964207369676e6174757265202776272076616c604482015261756560f01b60648201526084016106e4565b60006001600160e01b0319821663780e9d6360e01b14806105e457506105e482612bb3565b6001600160a01b03831661249c5761249781600880546000838152600960205260408120829055600182018355919091527ff3f7a9fe364faab93b216da50a3214154f22a0a2b415b23a84c8169e8b636ee30155565b6124bf565b816001600160a01b0316836001600160a01b0316146124bf576124bf8382612c03565b6001600160a01b0382166124d65761081a81612ca0565b826001600160a01b0316826001600160a01b03161461081a5761081a8282612d4f565b60606000612508836002613641565b612513906002613484565b67ffffffffffffffff81111561252b5761252b613120565b6040519080825280601f01601f191660200182016040528015612555576020820181803683370190505b509050600360fc1b81600081518110612570576125706133df565b60200101906001600160f81b031916908160001a905350600f60fb1b8160018151811061259f5761259f6133df565b60200101906001600160f81b031916908160001a90535060006125c3846002613641565b6125ce906001613484565b90505b6001811115612646576f181899199a1a9b1b9c1cb0b131b232b360811b85600f1660108110612602576126026133df565b1a60f81b828281518110612618576126186133df565b60200101906001600160f81b031916908160001a90535060049490941c9361263f81613660565b90506125d1565b508315610bc85760405162461bcd60e51b815260206004820181905260248201527f537472696e67733a20686578206c656e67746820696e73756666696369656e7460448201526064016106e4565b6000818152600183016020526040812054801561277e5760006126b960018361346d565b85549091506000906126cd9060019061346d565b90508181146127325760008660000182815481106126ed576126ed6133df565b9060005260206000200154905080876000018481548110612710576127106133df565b6000918252602080832090910192909255918252600188019052604090208390555b855486908061274357612743613677565b6001900381819060005260206000200160009055905585600101600086815260200190815260200160002060009055600193505050506105e4565b60009150506105e4565b600061279382610ab2565b90506127a181600084611c8e565b6127ac600083611094565b6001600160a01b03811660009081526003602052604081208054600192906127d590849061346d565b909155505060008281526002602052604080822080546001600160a01b0319169055518391906001600160a01b038416907fddf252ad1be2c89b69c2b068fc378daa952ba7f163c4a11628f55a4df523b3ef908390a45050565b6060831561283e575081610bc8565b82511561284e5782518084602001fd5b8160405162461bcd60e51b81526004016106e49190612eed565b60608161288c5750506040805180820190915260018152600360fc1b602082015290565b8160005b81156128b657806128a081613452565b91506128af9050600a836136a3565b9150612890565b60008167ffffffffffffffff8111156128d1576128d1613120565b6040519080825280601f01601f1916602001820160405280156128fb576020820181803683370190505b5090505b84156111e45761291060018361346d565b915061291d600a866136b7565b612928906030613484565b60f81b81838151811061293d5761293d6133df565b60200101906001600160f81b031916908160001a90535061295f600a866136a3565b94506128ff565b6000306001600160a01b037f0000000000000000000000000000000000000000000000000000000000000000161480156129bf57507f000000000000000000000000000000000000000000000000000000000000000046145b156129e957507f000000000000000000000000000000000000000000000000000000000000000090565b50604080517f00000000000000000000000000000000000000000000000000000000000000006020808301919091527f0000000000000000000000000000000000000000000000000000000000000000828401527f000000000000000000000000000000000000000000000000000000000000000060608301524660808301523060a0808401919091528351808403909101815260c0909201909252805191012090565b6000807f7fffffffffffffffffffffffffffffff5d576e7357a4501ddfe92f46681b20a0831115612ac45750600090506003612b71565b8460ff16601b14158015612adc57508460ff16601c14155b15612aed5750600090506004612b71565b6040805160008082526020820180845289905260ff881692820192909252606081018690526080810185905260019060a0016020604051602081039080840390855afa158015612b41573d6000803e3d6000fd5b5050604051601f1901519150506001600160a01b038116612b6a57600060019250925050612b71565b9150600090505b94509492505050565b6000806001600160ff1b03831681612b9760ff86901c601b613484565b9050612ba587828885612a8d565b935093505050935093915050565b60006001600160e01b031982166380ac58cd60e01b1480612be457506001600160e01b03198216635b5e139f60e01b145b806105e457506301ffc9a760e01b6001600160e01b03198316146105e4565b60006001612c1084610b29565b612c1a919061346d565b600083815260076020526040902054909150808214612c6d576001600160a01b03841660009081526006602090815260408083208584528252808320548484528184208190558352600790915290208190555b5060009182526007602090815260408084208490556001600160a01b039094168352600681528383209183525290812055565b600854600090612cb29060019061346d565b60008381526009602052604081205460088054939450909284908110612cda57612cda6133df565b906000526020600020015490508060088381548110612cfb57612cfb6133df565b6000918252602080832090910192909255828152600990915260408082208490558582528120556008805480612d3357612d33613677565b6001900381819060005260206000200160009055905550505050565b6000612d5a83610b29565b6001600160a01b039093166000908152600660209081526040808320868452825280832085905593825260079052919091209190915550565b828054612d9f90613353565b90600052602060002090601f016020900481019282612dc15760008555612e07565b82601f10612dda57805160ff1916838001178555612e07565b82800160010185558215612e07579182015b82811115612e07578251825591602001919060010190612dec565b50612e13929150612e4d565b5090565b508054612e2390613353565b6000825580601f10612e33575050565b601f016020900490600052602060002090810190610a1c91905b5b80821115612e135760008155600101612e4e565b6001600160e01b031981168114610a1c57600080fd5b600060208284031215612e8a57600080fd5b8135610bc881612e62565b60005b83811015612eb0578181015183820152602001612e98565b83811115610d3b5750506000910152565b60008151808452612ed9816020860160208601612e95565b601f01601f19169290920160200192915050565b602081526000610bc86020830184612ec1565b600060208284031215612f1257600080fd5b5035919050565b80356001600160a01b0381168114612f3057600080fd5b919050565b60008060408385031215612f4857600080fd5b612f5183612f19565b946020939093013593505050565b600080600060608486031215612f7457600080fd5b612f7d84612f19565b9250612f8b60208501612f19565b9150604084013590509250925092565b60008060408385031215612fae57600080fd5b82359150612fbe60208401612f19565b90509250929050565b600060208284031215612fd957600080fd5b610bc882612f19565b60008060408385031215612ff557600080fd5b50508035926020909101359150565b8015158114610a1c57600080fd5b6000806040838503121561302557600080fd5b61302e83612f19565b9150602083013561303e81613004565b809150509250929050565b6000806020838503121561305c57600080fd5b823567ffffffffffffffff8082111561307457600080fd5b818501915085601f83011261308857600080fd5b81358181111561309757600080fd5b8660208260051b85010111156130ac57600080fd5b60209290920196919550909350505050565b6000602080830181845280855180835260408601915060408160051b870101925083870160005b8281101561311357603f19888603018452613101858351612ec1565b945092850192908501906001016130e5565b5092979650505050505050565b634e487b7160e01b600052604160045260246000fd5b600067ffffffffffffffff8084111561315157613151613120565b604051601f8501601f19908116603f0116810190828211818310171561317957613179613120565b8160405280935085815286868601111561319257600080fd5b858560208301376000602087830101525050509392505050565b600080600080608085870312156131c257600080fd5b6131cb85612f19565b93506131d960208601612f19565b925060408501359150606085013567ffffffffffffffff8111156131fc57600080fd5b8501601f8101871361320d57600080fd5b61321c87823560208401613136565b91505092959194509250565b60008060006040848603121561323d57600080fd5b833567ffffffffffffffff8082111561325557600080fd5b9085019060c0828803121561326957600080fd5b9093506020850135908082111561327f57600080fd5b818601915086601f83011261329357600080fd5b8135818111156132a257600080fd5b8760208285010111156132b457600080fd5b6020830194508093505050509250925092565b600080604083850312156132da57600080fd5b6132e383612f19565b9150602083013567ffffffffffffffff8111156132ff57600080fd5b8301601f8101851361331057600080fd5b61331f85823560208401613136565b9150509250929050565b6000806040838503121561333c57600080fd5b61334583612f19565b9150612fbe60208401612f19565b600181811c9082168061336757607f821691505b6020821081141561338857634e487b7160e01b600052602260045260246000fd5b50919050565b60208082526031908201527f4552433732313a207472616e736665722063616c6c6572206973206e6f74206f6040820152701ddb995c881b9bdc88185c1c1c9bdd9959607a1b606082015260800190565b634e487b7160e01b600052603260045260246000fd5b6000808335601e1984360301811261340c57600080fd5b83018035915067ffffffffffffffff82111561342757600080fd5b60200191503681900382131561225a57600080fd5b634e487b7160e01b600052601160045260246000fd5b60006000198214156134665761346661343c565b5060010190565b60008282101561347f5761347f61343c565b500390565b600082198211156134975761349761343c565b500190565b60208082526032908201527f4552433732313a207472616e7366657220746f206e6f6e20455243373231526560408201527131b2b4bb32b91034b6b83632b6b2b73a32b960711b606082015260800190565b60006020828403121561350057600080fd5b8151610bc881613004565b6000835161351d818460208801612e95565b835190830190613531818360208801612e95565b01949350505050565b8183823760009101908152919050565b7f416363657373436f6e74726f6c3a206163636f756e7420000000000000000000815260008351613582816017850160208801612e95565b7001034b99036b4b9b9b4b733903937b6329607d1b60179184019182015283516135b3816028840160208801612e95565b01602801949350505050565b600082516135d1818460208701612e95565b9190910192915050565b6001600160a01b0385811682528416602082015260408101839052608060608201819052600090611fb590830184612ec1565b60006020828403121561362057600080fd5b8151610bc881612e62565b634e487b7160e01b600052602160045260246000fd5b600081600019048311821515161561365b5761365b61343c565b500290565b60008161366f5761366f61343c565b506000190190565b634e487b7160e01b600052603160045260246000fd5b634e487b7160e01b600052601260045260246000fd5b6000826136b2576136b261368d565b500490565b6000826136c6576136c661368d565b50069056fe416464726573733a206c6f772d6c6576656c2064656c65676174652063616c6c206661696c6564a164736f6c6343000809000a",
  "linkReferences": {},
  "deployedLinkReferences": {}
}