{
  "_format": "hh-sol-artifact-1",
  "contractName": "NFT",
  "sourceName": "contracts/NFT.sol",
  "abi": [
    {
      "inputs": [
        {
          "internalType": "string",
          "name": "_name",
          "type": "string"
        },
        {
          "internalType": "string",
          "name": "_symbol",
          "type": "string"
        }
      ],
      "stateMutability": "nonpayable",
      "type": "constructor"
    },
    {
      "anonymous": false,
      "inputs": [
        {
          "indexed": true,
          "internalType": "address",
          "name": "owner",
          "type": "address"
        },
        {
          "indexed": true,
          "internalType": "address",
          "name": "approved",
          "type": "address"
        },
        {
          "indexed": true,
          "internalType": "uint256",
          "name": "tokenId",
          "type": "uint256"
        }
      ],
      "name": "Approval",
      "type": "event"
    },
    {
      "anonymous": false,
      "inputs": [
        {
          "indexed": true,
          "internalType": "address",
          "name": "owner",
          "type": "address"
        },
        {
          "indexed": true,
          "internalType": "address",
          "name": "operator",
          "type": "address"
        },
        {
          "indexed": false,
          "internalType": "bool",
          "name": "approved",
          "type": "bool"
        }
      ],
      "name": "ApprovalForAll",
      "type": "event"
    },
    {
      "anonymous": false,
      "inputs": [
        {
          "indexed": true,
          "internalType": "bytes32",
          "name": "role",
          "type": "bytes32"
        },
        {
          "indexed": true,
          "internalType": "bytes32",
          "name": "previousAdminRole",
          "type": "bytes32"
        },
        {
          "indexed": true,
          "internalType": "bytes32",
          "name": "newAdminRole",
          "type": "bytes32"
        }
      ],
      "name": "RoleAdminChanged",
      "type": "event"
    },
    {
      "anonymous": false,
      "inputs": [
        {
          "indexed": true,
          "internalType": "bytes32",
          "name": "role",
          "type": "bytes32"
        },
        {
          "indexed": true,
          "internalType": "address",
          "name": "account",
          "type": "address"
        },
        {
          "indexed": true,
          "internalType": "address",
          "name": "sender",
          "type": "address"
        }
      ],
      "name": "RoleGranted",
      "type": "event"
    },
    {
      "anonymous": false,
      "inputs": [
        {
          "indexed": true,
          "internalType": "bytes32",
          "name": "role",
          "type": "bytes32"
        },
        {
          "indexed": true,
          "internalType": "address",
          "name": "account",
          "type": "address"
        },
        {
          "indexed": true,
          "internalType": "address",
          "name": "sender",
          "type": "address"
        }
      ],
      "name": "RoleRevoked",
      "type": "event"
    },
    {
      "anonymous": false,
      "inputs": [
        {
          "indexed": true,
          "internalType": "address",
          "name": "from",
          "type": "address"
        },
        {
          "indexed": true,
          "internalType": "address",
          "name": "to",
          "type": "address"
        },
        {
          "indexed": true,
          "internalType": "uint256",
          "name": "tokenId",
          "type": "uint256"
        }
      ],
      "name": "Transfer",
      "type": "event"
    },
    {
      "inputs": [],
      "name": "DEFAULT_ADMIN_ROLE",
      "outputs": [
        {
          "internalType": "bytes32",
          "name": "",
          "type": "bytes32"
        }
      ],
      "stateMutability": "view",
      "type": "function"
    },
    {
      "inputs": [
        {
          "internalType": "address",
          "name": "to",
          "type": "address"
        },
        {
          "internalType": "uint256",
          "name": "tokenId",
          "type": "uint256"
        }
      ],
      "name": "approve",
      "outputs": [],
      "stateMutability": "nonpayable",
      "type": "function"
    },
    {
      "inputs": [
        {
          "internalType": "address",
          "name": "owner",
          "type": "address"
        }
      ],
      "name": "balanceOf",
      "outputs": [
        {
          "internalType": "uint256",
          "name": "",
          "type": "uint256"
        }
      ],
      "stateMutability": "view",
      "type": "function"
    },
    {
      "inputs": [
        {
          "internalType": "uint256",
          "name": "tokenId",
          "type": "uint256"
        }
      ],
      "name": "burn",
      "outputs": [],
      "stateMutability": "nonpayable",
      "type": "function"
    },
    {
      "inputs": [
        {
          "internalType": "uint256",
          "name": "tokenId",
          "type": "uint256"
        }
      ],
      "name": "getApproved",
      "outputs": [
        {
          "internalType": "address",
          "name": "",
          "type": "address"
        }
      ],
      "stateMutability": "view",
      "type": "function"
    },
    {
      "inputs": [
        {
          "internalType": "bytes32",
          "name": "role",
          "type": "bytes32"
        }
      ],
      "name": "getRoleAdmin",
      "outputs": [
        {
          "internalType": "bytes32",
          "name": "",
          "type": "bytes32"
        }
      ],
      "stateMutability": "view",
      "type": "function"
    },
    {
      "inputs": [
        {
          "internalType": "bytes32",
          "name": "role",
          "type": "bytes32"
        },
        {
          "internalType": "uint256",
          "name": "index",
          "type": "uint256"
        }
      ],
      "name": "getRoleMember",
      "outputs": [
        {
          "internalType": "address",
          "name": "",
          "type": "address"
        }
      ],
      "stateMutability": "view",
      "type": "function"
    },
    {
      "inputs": [
        {
          "internalType": "bytes32",
          "name": "role",
          "type": "bytes32"
        }
      ],
      "name": "getRoleMemberCount",
      "outputs": [
        {
          "internalType": "uint256",
          "name": "",
          "type": "uint256"
        }
      ],
      "stateMutability": "view",
      "type": "function"
    },
    {
      "inputs": [
        {
          "internalType": "bytes32",
          "name": "role",
          "type": "bytes32"
        },
        {
          "internalType": "address",
          "name": "account",
          "type": "address"
        }
      ],
      "name": "grantRole",
      "outputs": [],
      "stateMutability": "nonpayable",
      "type": "function"
    },
    {
      "inputs": [
        {
          "internalType": "bytes32",
          "name": "role",
          "type": "bytes32"
        },
        {
          "internalType": "address",
          "name": "account",
          "type": "address"
        }
      ],
      "name": "hasRole",
      "outputs": [
        {
          "internalType": "bool",
          "name": "",
          "type": "bool"
        }
      ],
      "stateMutability": "view",
      "type": "function"
    },
    {
      "inputs": [
        {
          "internalType": "address",
          "name": "owner",
          "type": "address"
        },
        {
          "internalType": "address",
          "name": "operator",
          "type": "address"
        }
      ],
      "name": "isApprovedForAll",
      "outputs": [
        {
          "internalType": "bool",
          "name": "",
          "type": "bool"
        }
      ],
      "stateMutability": "view",
      "type": "function"
    },
    {
      "inputs": [
        {
          "internalType": "bytes[]",
          "name": "data",
          "type": "bytes[]"
        }
      ],
      "name": "multicall",
      "outputs": [
        {
          "internalType": "bytes[]",
          "name": "results",
          "type": "bytes[]"
        }
      ],
      "stateMutability": "nonpayable",
      "type": "function"
    },
    {
      "inputs": [],
      "name": "name",
      "outputs": [
        {
          "internalType": "string",
          "name": "",
          "type": "string"
        }
      ],
      "stateMutability": "view",
      "type": "function"
    },
    {
      "inputs": [],
      "name": "nextTokenId",
      "outputs": [
        {
          "internalType": "uint256",
          "name": "",
          "type": "uint256"
        }
      ],
      "stateMutability": "view",
      "type": "function"
    },
    {
      "inputs": [
        {
          "internalType": "uint256",
          "name": "tokenId",
          "type": "uint256"
        }
      ],
      "name": "ownerOf",
      "outputs": [
        {
          "internalType": "address",
          "name": "",
          "type": "address"
        }
      ],
      "stateMutability": "view",
      "type": "function"
    },
    {
      "inputs": [
        {
          "internalType": "bytes32",
          "name": "role",
          "type": "bytes32"
        },
        {
          "internalType": "address",
          "name": "account",
          "type": "address"
        }
      ],
      "name": "renounceRole",
      "outputs": [],
      "stateMutability": "nonpayable",
      "type": "function"
    },
    {
      "inputs": [
        {
          "internalType": "bytes32",
          "name": "role",
          "type": "bytes32"
        },
        {
          "internalType": "address",
          "name": "account",
          "type": "address"
        }
      ],
      "name": "revokeRole",
      "outputs": [],
      "stateMutability": "nonpayable",
      "type": "function"
    },
    {
      "inputs": [
        {
          "internalType": "address",
          "name": "to",
          "type": "address"
        },
        {
          "internalType": "string",
          "name": "uri",
          "type": "string"
        }
      ],
      "name": "safeMint",
      "outputs": [],
      "stateMutability": "nonpayable",
      "type": "function"
    },
    {
      "inputs": [
        {
          "internalType": "address",
          "name": "from",
          "type": "address"
        },
        {
          "internalType": "address",
          "name": "to",
          "type": "address"
        },
        {
          "internalType": "uint256",
          "name": "tokenId",
          "type": "uint256"
        }
      ],
      "name": "safeTransferFrom",
      "outputs": [],
      "stateMutability": "nonpayable",
      "type": "function"
    },
    {
      "inputs": [
        {
          "internalType": "address",
          "name": "from",
          "type": "address"
        },
        {
          "internalType": "address",
          "name": "to",
          "type": "address"
        },
        {
          "internalType": "uint256",
          "name": "tokenId",
          "type": "uint256"
        },
        {
          "internalType": "bytes",
          "name": "_data",
          "type": "bytes"
        }
      ],
      "name": "safeTransferFrom",
      "outputs": [],
      "stateMutability": "nonpayable",
      "type": "function"
    },
    {
      "inputs": [
        {
          "internalType": "address",
          "name": "operator",
          "type": "address"
        },
        {
          "internalType": "bool",
          "name": "approved",
          "type": "bool"
        }
      ],
      "name": "setApprovalForAll",
      "outputs": [],
      "stateMutability": "nonpayable",
      "type": "function"
    },
    {
      "inputs": [
        {
          "components": [
            {
              "internalType": "uint256",
              "name": "tokenId",
              "type": "uint256"
            },
            {
              "internalType": "address",
              "name": "to",
              "type": "address"
            },
            {
              "internalType": "string",
              "name": "uri",
              "type": "string"
            },
            {
              "internalType": "uint256",
              "name": "price",
              "type": "uint256"
            },
            {
              "internalType": "address",
              "name": "currency",
              "type": "address"
            },
            {
              "internalType": "address",
              "name": "paymentReceiver",
              "type": "address"
            }
          ],
          "internalType": "struct SignatureMint.MintVoucher",
          "name": "voucher",
          "type": "tuple"
        },
        {
          "internalType": "bytes",
          "name": "signature",
          "type": "bytes"
        }
      ],
      "name": "signatureMint",
      "outputs": [
        {
          "internalType": "uint256",
          "name": "",
          "type": "uint256"
        }
      ],
      "stateMutability": "payable",
      "type": "function"
    },
    {
      "inputs": [
        {
          "internalType": "bytes4",
          "name": "interfaceId",
          "type": "bytes4"
        }
      ],
      "name": "supportsInterface",
      "outputs": [
        {
          "internalType": "bool",
          "name": "",
          "type": "bool"
        }
      ],
      "stateMutability": "view",
      "type": "function"
    },
    {
      "inputs": [],
      "name": "symbol",
      "outputs": [
        {
          "internalType": "string",
          "name": "",
          "type": "string"
        }
      ],
      "stateMutability": "view",
      "type": "function"
    },
    {
      "inputs": [
        {
          "internalType": "uint256",
          "name": "index",
          "type": "uint256"
        }
      ],
      "name": "tokenByIndex",
      "outputs": [
        {
          "internalType": "uint256",
          "name": "",
          "type": "uint256"
        }
      ],
      "stateMutability": "view",
      "type": "function"
    },
    {
      "inputs": [
        {
          "internalType": "address",
          "name": "owner",
          "type": "address"
        },
        {
          "internalType": "uint256",
          "name": "index",
          "type": "uint256"
        }
      ],
      "name": "tokenOfOwnerByIndex",
      "outputs": [
        {
          "internalType": "uint256",
          "name": "",
          "type": "uint256"
        }
      ],
      "stateMutability": "view",
      "type": "function"
    },
    {
      "inputs": [
        {
          "internalType": "uint256",
          "name": "tokenId",
          "type": "uint256"
        }
      ],
      "name": "tokenURI",
      "outputs": [
        {
          "internalType": "string",
          "name": "",
          "type": "string"
        }
      ],
      "stateMutability": "view",
      "type": "function"
    },
    {
      "inputs": [],
      "name": "totalSupply",
      "outputs": [
        {
          "internalType": "uint256",
          "name": "",
          "type": "uint256"
        }
      ],
      "stateMutability": "view",
      "type": "function"
    },
    {
      "inputs": [
        {
          "internalType": "address",
          "name": "from",
          "type": "address"
        },
        {
          "internalType": "address",
          "name": "to",
          "type": "address"
        },
        {
          "internalType": "uint256",
          "name": "tokenId",
          "type": "uint256"
        }
      ],
      "name": "transferFrom",
      "outputs": [],
      "stateMutability": "nonpayable",
      "type": "function"
    },
    {
      "inputs": [
        {
          "components": [
            {
              "internalType": "uint256",
              "name": "tokenId",
              "type": "uint256"
            },
            {
              "internalType": "address",
              "name": "to",
              "type": "address"
            },
            {
              "internalType": "string",
              "name": "uri",
              "type": "string"
            },
            {
              "internalType": "uint256",
              "name": "price",
              "type": "uint256"
            },
            {
              "internalType": "address",
              "name": "currency",
              "type": "address"
            },
            {
              "internalType": "address",
              "name": "paymentReceiver",
              "type": "address"
            }
          ],
          "internalType": "struct SignatureMint.MintVoucher",
          "name": "voucher",
          "type": "tuple"
        },
        {
          "internalType": "bytes",
          "name": "signature",
          "type": "bytes"
        }
      ],
      "name": "verify",
      "outputs": [
        {
          "internalType": "bool",
          "name": "success",
          "type": "bool"
        },
        {
          "internalType": "address",
          "name": "signer",
          "type": "address"
        }
      ],
      "stateMutability": "view",
      "type": "function"
    }
  ],
  "bytecode": "0x6101406040523480156200001257600080fd5b5060405162003d0238038062003d028339810160408190526200003591620004b5565b6040518060400160405280601081526020016f14da59db985d1d5c99535a5b9d13919560821b815250604051806040016040528060018152602001603160f81b815250838381600090805190602001906200009292919062000342565b508051620000a890600190602084019062000342565b5050825160209384012082519284019290922060e08390526101008190524660a0818152604080517f8b73c3c69bb8fe3d512ecc4cf759cc79239f7b179b0ffacaa9a75d522b39400f818901819052818301979097526060810194909452608080850193909352308483018190528151808603909301835260c09485019091528151919096012090529290925261012052506001600c556200014c600033620001d9565b620001787f9f2df0fed2c77648de5860a4cc508cd0818c85b8b8a1ab4ceeef8d981c8956a633620001d9565b620001a47f8502233096d909befbda0999bb8ea2f3a6be3c138b9fbf003752a4c8bce86f6c33620001d9565b620001d17f8502233096d909befbda0999bb8ea2f3a6be3c138b9fbf003752a4c8bce86f6c6000620001d9565b50506200055c565b620001e58282620001e9565b5050565b6200020082826200022c60201b62000ffe1760201c565b6000828152600e602090815260409091206200022791839062001084620002d0821b17901c565b505050565b6000828152600d602090815260408083206001600160a01b038516845290915290205460ff16620001e5576000828152600d602090815260408083206001600160a01b03851684529091529020805460ff191660011790556200028c3390565b6001600160a01b0316816001600160a01b0316837f2f8788117e7eff1d82e926ec794901d17c78024a50270940304540a733656f0d60405160405180910390a45050565b6000620002e7836001600160a01b038416620002f0565b90505b92915050565b60008181526001830160205260408120546200033957508154600181810184556000848152602080822090930184905584548482528286019093526040902091909155620002ea565b506000620002ea565b82805462000350906200051f565b90600052602060002090601f016020900481019282620003745760008555620003bf565b82601f106200038f57805160ff1916838001178555620003bf565b82800160010185558215620003bf579182015b82811115620003bf578251825591602001919060010190620003a2565b50620003cd929150620003d1565b5090565b5b80821115620003cd5760008155600101620003d2565b634e487b7160e01b600052604160045260246000fd5b600082601f8301126200041057600080fd5b81516001600160401b03808211156200042d576200042d620003e8565b604051601f8301601f19908116603f01168101908282118183101715620004585762000458620003e8565b816040528381526020925086838588010111156200047557600080fd5b600091505b838210156200049957858201830151818301840152908201906200047a565b83821115620004ab5760008385830101525b9695505050505050565b60008060408385031215620004c957600080fd5b82516001600160401b0380821115620004e157600080fd5b620004ef86838701620003fe565b935060208501519150808211156200050657600080fd5b506200051585828601620003fe565b9150509250929050565b600181811c908216806200053457607f821691505b602082108114156200055657634e487b7160e01b600052602260045260246000fd5b50919050565b60805160a05160c05160e0516101005161012051613756620005ac6000396000612776015260006127c5015260006127a0015260006126f9015260006127230152600061274d01526137566000f3fe6080604052600436106101cd5760003560e01c80636352211e116100f7578063a22cb46511610095578063ca15c87311610064578063ca15c87314610550578063d204c45e14610570578063d547741f14610590578063e985e9c5146105b057600080fd5b8063a22cb465146104c3578063ac9650d8146104e3578063b88d4fde14610510578063c87b56dd1461053057600080fd5b80639010d07c116100d15780639010d07c1461045957806391d148541461047957806395d89b4114610499578063a217fddf146104ae57600080fd5b80636352211e1461040457806370a082311461042457806375794a3c1461044457600080fd5b8063248a9ca31161016f57806336568abe1161013e57806336568abe1461038457806342842e0e146103a457806342966c68146103c45780634f6ccce7146103e457600080fd5b8063248a9ca3146102d55780632f2ff15d146103055780632f745c591461032557806335588b3c1461034557600080fd5b8063095ea7b3116101ab578063095ea7b31461026157806318160ddd146102835780631b94ad92146102a257806323b872dd146102b557600080fd5b806301ffc9a7146101d257806306fdde0314610207578063081812fc14610229575b600080fd5b3480156101de57600080fd5b506101f26101ed366004612ecf565b6105f9565b60405190151581526020015b60405180910390f35b34801561021357600080fd5b5061021c61060a565b6040516101fe9190612f44565b34801561023557600080fd5b50610249610244366004612f57565b61069c565b6040516001600160a01b0390911681526020016101fe565b34801561026d57600080fd5b5061028161027c366004612f8c565b610729565b005b34801561028f57600080fd5b506008545b6040519081526020016101fe565b6102946102b0366004612fb6565b61083f565b3480156102c157600080fd5b506102816102d0366004613055565b6109ac565b3480156102e157600080fd5b506102946102f0366004612f57565b6000908152600d602052604090206001015490565b34801561031157600080fd5b50610281610320366004613091565b6109de565b34801561033157600080fd5b50610294610340366004612f8c565b610a03565b34801561035157600080fd5b50610365610360366004612fb6565b610a99565b6040805192151583526001600160a01b039091166020830152016101fe565b34801561039057600080fd5b5061028161039f366004613091565b610b19565b3480156103b057600080fd5b506102816103bf366004613055565b610b97565b3480156103d057600080fd5b506102816103df366004612f57565b610bb2565b3480156103f057600080fd5b506102946103ff366004612f57565b610c2c565b34801561041057600080fd5b5061024961041f366004612f57565b610cbf565b34801561043057600080fd5b5061029461043f3660046130bd565b610d36565b34801561045057600080fd5b50610294610dbd565b34801561046557600080fd5b506102496104743660046130d8565b610dcd565b34801561048557600080fd5b506101f2610494366004613091565b610dec565b3480156104a557600080fd5b5061021c610e17565b3480156104ba57600080fd5b50610294600081565b3480156104cf57600080fd5b506102816104de366004613108565b610e26565b3480156104ef57600080fd5b506105036104fe36600461313f565b610e31565b6040516101fe91906131b4565b34801561051c57600080fd5b5061028161052b3660046132a2565b610f26565b34801561053c57600080fd5b5061021c61054b366004612f57565b610f5e565b34801561055c57600080fd5b5061029461056b366004612f57565b610f69565b34801561057c57600080fd5b5061028161058b36600461331e565b610f80565b34801561059c57600080fd5b506102816105ab366004613091565b610fd9565b3480156105bc57600080fd5b506101f26105cb366004613380565b6001600160a01b03918216600090815260056020908152604080832093909416825291909152205460ff1690565b600061060482611099565b92915050565b606060008054610619906133aa565b80601f0160208091040260200160405190810160405280929190818152602001828054610645906133aa565b80156106925780601f1061066757610100808354040283529160200191610692565b820191906000526020600020905b81548152906001019060200180831161067557829003601f168201915b5050505050905090565b60006106a7826110be565b61070d5760405162461bcd60e51b815260206004820152602c60248201527f4552433732313a20617070726f76656420717565727920666f72206e6f6e657860448201526b34b9ba32b73a103a37b5b2b760a11b60648201526084015b60405180910390fd5b506000908152600460205260409020546001600160a01b031690565b600061073482610cbf565b9050806001600160a01b0316836001600160a01b031614156107a25760405162461bcd60e51b815260206004820152602160248201527f4552433732313a20617070726f76616c20746f2063757272656e74206f776e656044820152603960f91b6064820152608401610704565b336001600160a01b03821614806107be57506107be81336105cb565b6108305760405162461bcd60e51b815260206004820152603860248201527f4552433732313a20617070726f76652063616c6c6572206973206e6f74206f7760448201527f6e6572206e6f7220617070726f76656420666f7220616c6c00000000000000006064820152608401610704565b61083a83836110db565b505050565b60006002600c5414156108945760405162461bcd60e51b815260206004820152601f60248201527f5265656e7472616e637947756172643a207265656e7472616e742063616c6c006044820152606401610704565b6002600c556108a4848484611149565b506000806108b860408701602088016130bd565b6001600160a01b0316146108db576108d660408601602087016130bd565b6108dd565b335b90506108e8856111c2565b600f5485351461093a5760405162461bcd60e51b815260206004820152601e60248201527f766f756368657220746f6b656e4964206e6f742073657175656e7469616c00006044820152606401610704565b6109458186356113d7565b610991853561095760408801886133e5565b8080601f01602080910402602001604051908101604052809392919081815260200183838082843760009201919091525061151692505050565b61099f600f80546001019055565b50506001600c5550503590565b6109b7335b826115a1565b6109d35760405162461bcd60e51b81526004016107049061342c565b61083a83838361168b565b6000828152600d60205260409020600101546109f981611832565b61083a838361183c565b6000610a0e83610d36565b8210610a705760405162461bcd60e51b815260206004820152602b60248201527f455243373231456e756d657261626c653a206f776e657220696e646578206f7560448201526a74206f6620626f756e647360a81b6064820152608401610704565b506001600160a01b03919091166000908152600660209081526040808320938352929052205490565b600080610ae784848080601f016020809104026020016040519081016040528093929190818152602001838380828437600092019190915250610ae1925089915061185e9050565b9061193a565b85356000908152600b602052604090205490915060ff16158015610b0f5750610b0f8161195e565b9150935093915050565b6001600160a01b0381163314610b895760405162461bcd60e51b815260206004820152602f60248201527f416363657373436f6e74726f6c3a2063616e206f6e6c792072656e6f756e636560448201526e103937b632b9903337b91039b2b63360891b6064820152608401610704565b610b93828261198a565b5050565b61083a83838360405180602001604052806000815250610f26565b610bbb336109b1565b610c205760405162461bcd60e51b815260206004820152603060248201527f4552433732314275726e61626c653a2063616c6c6572206973206e6f74206f7760448201526f1b995c881b9bdc88185c1c1c9bdd995960821b6064820152608401610704565b610c29816119ac565b50565b6000610c3760085490565b8210610c9a5760405162461bcd60e51b815260206004820152602c60248201527f455243373231456e756d657261626c653a20676c6f62616c20696e646578206f60448201526b7574206f6620626f756e647360a01b6064820152608401610704565b60088281548110610cad57610cad61347d565b90600052602060002001549050919050565b6000818152600260205260408120546001600160a01b0316806106045760405162461bcd60e51b815260206004820152602960248201527f4552433732313a206f776e657220717565727920666f72206e6f6e657869737460448201526832b73a103a37b5b2b760b91b6064820152608401610704565b60006001600160a01b038216610da15760405162461bcd60e51b815260206004820152602a60248201527f4552433732313a2062616c616e636520717565727920666f7220746865207a65604482015269726f206164647265737360b01b6064820152608401610704565b506001600160a01b031660009081526003602052604090205490565b6000610dc8600f5490565b905090565b6000828152600e60205260408120610de590836119b5565b9392505050565b6000918252600d602090815260408084206001600160a01b0393909316845291905290205460ff1690565b606060018054610619906133aa565b610b933383836119c1565b60608167ffffffffffffffff811115610e4c57610e4c613216565b604051908082528060200260200182016040528015610e7f57816020015b6060815260200190600190039081610e6a5790505b50905060005b82811015610f1f57610eef30858584818110610ea357610ea361347d565b9050602002810190610eb591906133e5565b8080601f016020809104026020016040519081016040528093929190818152602001838380828437600092019190915250611a9092505050565b828281518110610f0157610f0161347d565b60200260200101819052508080610f17906134a9565b915050610e85565b5092915050565b610f3033836115a1565b610f4c5760405162461bcd60e51b81526004016107049061342c565b610f5884848484611ab5565b50505050565b606061060482611ae8565b6000818152600e6020526040812061060490611c57565b7f9f2df0fed2c77648de5860a4cc508cd0818c85b8b8a1ab4ceeef8d981c8956a6610faa81611832565b6000610fb5600f5490565b9050610fc5600f80546001019055565b610fcf84826113d7565b610f588184611516565b6000828152600d6020526040902060010154610ff481611832565b61083a838361198a565b6110088282610dec565b610b93576000828152600d602090815260408083206001600160a01b03851684529091529020805460ff191660011790556110403390565b6001600160a01b0316816001600160a01b0316837f2f8788117e7eff1d82e926ec794901d17c78024a50270940304540a733656f0d60405160405180910390a45050565b6000610de5836001600160a01b038416611c61565b60006001600160e01b03198216635a05180f60e01b1480610604575061060482611cb0565b6000908152600260205260409020546001600160a01b0316151590565b600081815260046020526040902080546001600160a01b0319166001600160a01b038416908117909155819061111082610cbf565b6001600160a01b03167f8c5be1e5ebec7d5bd14f71427d1e84f3dd0314c0f7b2291e5b200ac8c7c3b92560405160405180910390a45050565b6000806000611159868686610a99565b90925090508161119d5760405162461bcd60e51b815260206004820152600f60248201526e24b73b30b634b2103b37bab1b432b960891b6044820152606401610704565b85356000908152600b60205260409020805460ff191660011790559150509392505050565b606081013560006111d960a08401608085016130bd565b905060006111ed60c0850160a086016130bd565b9050826111fa5750505050565b6001600160a01b03821673eeeeeeeeeeeeeeeeeeeeeeeeeeeeeeeeeeeeeeee141561131f578234146112675760405162461bcd60e51b815260206004820152601660248201527518dbdc9c9958dd081c1c9a58d9481b9bdd081cd95b9d60521b6044820152606401610704565b600061127960c0860160a087016130bd565b6001600160a01b03168460405160006040518083038185875af1925050503d80600081146112c3576040519150601f19603f3d011682016040523d82523d6000602084013e6112c8565b606091505b50509050806113195760405162461bcd60e51b815260206004820152601760248201527f7061796d656e74207265636569766572206661696c65640000000000000000006044820152606401610704565b50610f58565b336001600160a01b03821614156113365750505050565b61134660a08501608086016130bd565b6040516323b872dd60e01b81523360048201526001600160a01b0383811660248301526044820186905291909116906323b872dd90606401602060405180830381600087803b15801561139857600080fd5b505af11580156113ac573d6000803e3d6000fd5b505050506040513d601f19601f820116820180604052508101906113d091906134c4565b5050505050565b6001600160a01b03821661142d5760405162461bcd60e51b815260206004820181905260248201527f4552433732313a206d696e7420746f20746865207a65726f20616464726573736044820152606401610704565b611436816110be565b156114835760405162461bcd60e51b815260206004820152601c60248201527f4552433732313a20746f6b656e20616c7265616479206d696e746564000000006044820152606401610704565b61148f60008383611cd5565b6001600160a01b03821660009081526003602052604081208054600192906114b89084906134e1565b909155505060008181526002602052604080822080546001600160a01b0319166001600160a01b03861690811790915590518392907fddf252ad1be2c89b69c2b068fc378daa952ba7f163c4a11628f55a4df523b3ef908290a45050565b61151f826110be565b6115825760405162461bcd60e51b815260206004820152602e60248201527f45524337323155524953746f726167653a2055524920736574206f66206e6f6e60448201526d32bc34b9ba32b73a103a37b5b2b760911b6064820152608401610704565b6000828152600a60209081526040909120825161083a92840190612dea565b60006115ac826110be565b61160d5760405162461bcd60e51b815260206004820152602c60248201527f4552433732313a206f70657261746f7220717565727920666f72206e6f6e657860448201526b34b9ba32b73a103a37b5b2b760a11b6064820152608401610704565b600061161883610cbf565b9050806001600160a01b0316846001600160a01b0316148061165f57506001600160a01b0380821660009081526005602090815260408083209388168352929052205460ff165b806116835750836001600160a01b03166116788461069c565b6001600160a01b0316145b949350505050565b826001600160a01b031661169e82610cbf565b6001600160a01b0316146117025760405162461bcd60e51b815260206004820152602560248201527f4552433732313a207472616e736665722066726f6d20696e636f72726563742060448201526437bbb732b960d91b6064820152608401610704565b6001600160a01b0382166117645760405162461bcd60e51b8152602060048201526024808201527f4552433732313a207472616e7366657220746f20746865207a65726f206164646044820152637265737360e01b6064820152608401610704565b61176f838383611cd5565b61177a6000826110db565b6001600160a01b03831660009081526003602052604081208054600192906117a39084906134f9565b90915550506001600160a01b03821660009081526003602052604081208054600192906117d19084906134e1565b909155505060008181526002602052604080822080546001600160a01b0319166001600160a01b0386811691821790925591518493918716917fddf252ad1be2c89b69c2b068fc378daa952ba7f163c4a11628f55a4df523b3ef91a4505050565b610c298133611def565b6118468282610ffe565b6000828152600e6020526040902061083a9082611084565b60006106047f77f39aa5d091c6252b91d033e8242810b7167b0b759a19ff525613c9517da05f833561189660408601602087016130bd565b6118a360408701876133e5565b6040516118b1929190613510565b60405190819003902060608701356118cf60a0890160808a016130bd565b6118df60c08a0160a08b016130bd565b6040805160208101989098528701959095526001600160a01b039384166060870152608086019290925260a0850152811660c08401521660e08201526101000160405160208183030381529060405280519060200120611e53565b60008060006119498585611ea1565b9150915061195681611f11565b509392505050565b60006106047f9f2df0fed2c77648de5860a4cc508cd0818c85b8b8a1ab4ceeef8d981c8956a683610dec565b61199482826120cc565b6000828152600e6020526040902061083a9082612133565b610c2981612148565b6000610de58383612188565b816001600160a01b0316836001600160a01b03161415611a235760405162461bcd60e51b815260206004820152601960248201527f4552433732313a20617070726f766520746f2063616c6c6572000000000000006044820152606401610704565b6001600160a01b03838116600081815260056020908152604080832094871680845294825291829020805460ff191686151590811790915591519182527f17307eab39ab6107e8899845ad3d59bd9653f200f220920489ca2b5937696c31910160405180910390a3505050565b6060610de58383604051806060016040528060278152602001613723602791396121b2565b611ac084848461168b565b611acc8484848461228f565b610f585760405162461bcd60e51b815260040161070490613520565b6060611af3826110be565b611b595760405162461bcd60e51b815260206004820152603160248201527f45524337323155524953746f726167653a2055524920717565727920666f72206044820152703737b732bc34b9ba32b73a103a37b5b2b760791b6064820152608401610704565b6000828152600a602052604081208054611b72906133aa565b80601f0160208091040260200160405190810160405280929190818152602001828054611b9e906133aa565b8015611beb5780601f10611bc057610100808354040283529160200191611beb565b820191906000526020600020905b815481529060010190602001808311611bce57829003601f168201915b505050505090506000611c0960408051602081019091526000815290565b9050805160001415611c1c575092915050565b815115611c4e578082604051602001611c36929190613572565b60405160208183030381529060405292505050919050565b6116838461239c565b6000610604825490565b6000818152600183016020526040812054611ca857508154600181810184556000848152602080822090930184905584548482528286019093526040902091909155610604565b506000610604565b60006001600160e01b03198216637965db0b60e01b1480610604575061060482612473565b611ce0838383612498565b6001600160a01b03831615801590611d0057506001600160a01b03821615155b8015611d345750611d327f8502233096d909befbda0999bb8ea2f3a6be3c138b9fbf003752a4c8bce86f6c6000610dec565b155b1561083a57611d637f8502233096d909befbda0999bb8ea2f3a6be3c138b9fbf003752a4c8bce86f6c84610dec565b80611d935750611d937f8502233096d909befbda0999bb8ea2f3a6be3c138b9fbf003752a4c8bce86f6c83610dec565b61083a5760405162461bcd60e51b815260206004820152602760248201527f6f6e6c79207472616e7366657220726f6c6520686f6c646572732063616e20746044820152663930b739b332b960c91b6064820152608401610704565b611df98282610dec565b610b9357611e11816001600160a01b03166014612550565b611e1c836020612550565b604051602001611e2d9291906135a1565b60408051601f198184030181529082905262461bcd60e51b825261070491600401612f44565b6000610604611e606126ec565b8360405161190160f01b6020820152602281018390526042810182905260009060620160405160208183030381529060405280519060200120905092915050565b600080825160411415611ed85760208301516040840151606085015160001a611ecc87828585612813565b94509450505050611f0a565b825160401415611f025760208301516040840151611ef7868383612900565b935093505050611f0a565b506000905060025b9250929050565b6000816004811115611f2557611f25613616565b1415611f2e5750565b6001816004811115611f4257611f42613616565b1415611f905760405162461bcd60e51b815260206004820152601860248201527f45434453413a20696e76616c6964207369676e617475726500000000000000006044820152606401610704565b6002816004811115611fa457611fa4613616565b1415611ff25760405162461bcd60e51b815260206004820152601f60248201527f45434453413a20696e76616c6964207369676e6174757265206c656e677468006044820152606401610704565b600381600481111561200657612006613616565b141561205f5760405162461bcd60e51b815260206004820152602260248201527f45434453413a20696e76616c6964207369676e6174757265202773272076616c604482015261756560f01b6064820152608401610704565b600481600481111561207357612073613616565b1415610c295760405162461bcd60e51b815260206004820152602260248201527f45434453413a20696e76616c6964207369676e6174757265202776272076616c604482015261756560f01b6064820152608401610704565b6120d68282610dec565b15610b93576000828152600d602090815260408083206001600160a01b0385168085529252808320805460ff1916905551339285917ff6391f5c32d9c69d2a47ea670b442974b53935d1edc7fd64eb21e047a839171b9190a45050565b6000610de5836001600160a01b038416612939565b61215181612a2c565b6000818152600a60205260409020805461216a906133aa565b159050610c29576000818152600a60205260408120610c2991612e6e565b600082600001828154811061219f5761219f61347d565b9060005260206000200154905092915050565b60606001600160a01b0384163b61221a5760405162461bcd60e51b815260206004820152602660248201527f416464726573733a2064656c65676174652063616c6c20746f206e6f6e2d636f6044820152651b9d1c9858dd60d21b6064820152608401610704565b600080856001600160a01b031685604051612235919061362c565b600060405180830381855af49150503d8060008114612270576040519150601f19603f3d011682016040523d82523d6000602084013e612275565b606091505b5091509150612285828286612ad3565b9695505050505050565b60006001600160a01b0384163b1561239157604051630a85bd0160e11b81526001600160a01b0385169063150b7a02906122d3903390899088908890600401613648565b602060405180830381600087803b1580156122ed57600080fd5b505af192505050801561231d575060408051601f3d908101601f1916820190925261231a9181019061367b565b60015b612377573d80801561234b576040519150601f19603f3d011682016040523d82523d6000602084013e612350565b606091505b50805161236f5760405162461bcd60e51b815260040161070490613520565b805181602001fd5b6001600160e01b031916630a85bd0160e11b149050611683565b506001949350505050565b60606123a7826110be565b61240b5760405162461bcd60e51b815260206004820152602f60248201527f4552433732314d657461646174613a2055524920717565727920666f72206e6f60448201526e3732bc34b9ba32b73a103a37b5b2b760891b6064820152608401610704565b600061242260408051602081019091526000815290565b905060008151116124425760405180602001604052806000815250610de5565b8061244c84612b0c565b60405160200161245d929190613572565b6040516020818303038152906040529392505050565b60006001600160e01b0319821663780e9d6360e01b1480610604575061060482612c0a565b6001600160a01b0383166124f3576124ee81600880546000838152600960205260408120829055600182018355919091527ff3f7a9fe364faab93b216da50a3214154f22a0a2b415b23a84c8169e8b636ee30155565b612516565b816001600160a01b0316836001600160a01b031614612516576125168382612c5a565b6001600160a01b03821661252d5761083a81612cf7565b826001600160a01b0316826001600160a01b03161461083a5761083a8282612da6565b6060600061255f836002613698565b61256a9060026134e1565b67ffffffffffffffff81111561258257612582613216565b6040519080825280601f01601f1916602001820160405280156125ac576020820181803683370190505b509050600360fc1b816000815181106125c7576125c761347d565b60200101906001600160f81b031916908160001a905350600f60fb1b816001815181106125f6576125f661347d565b60200101906001600160f81b031916908160001a905350600061261a846002613698565b6126259060016134e1565b90505b600181111561269d576f181899199a1a9b1b9c1cb0b131b232b360811b85600f16601081106126595761265961347d565b1a60f81b82828151811061266f5761266f61347d565b60200101906001600160f81b031916908160001a90535060049490941c93612696816136b7565b9050612628565b508315610de55760405162461bcd60e51b815260206004820181905260248201527f537472696e67733a20686578206c656e67746820696e73756666696369656e746044820152606401610704565b6000306001600160a01b037f00000000000000000000000000000000000000000000000000000000000000001614801561274557507f000000000000000000000000000000000000000000000000000000000000000046145b1561276f57507f000000000000000000000000000000000000000000000000000000000000000090565b50604080517f00000000000000000000000000000000000000000000000000000000000000006020808301919091527f0000000000000000000000000000000000000000000000000000000000000000828401527f000000000000000000000000000000000000000000000000000000000000000060608301524660808301523060a0808401919091528351808403909101815260c0909201909252805191012090565b6000807f7fffffffffffffffffffffffffffffff5d576e7357a4501ddfe92f46681b20a083111561284a57506000905060036128f7565b8460ff16601b1415801561286257508460ff16601c14155b1561287357506000905060046128f7565b6040805160008082526020820180845289905260ff881692820192909252606081018690526080810185905260019060a0016020604051602081039080840390855afa1580156128c7573d6000803e3d6000fd5b5050604051601f1901519150506001600160a01b0381166128f0576000600192509250506128f7565b9150600090505b94509492505050565b6000806001600160ff1b0383168161291d60ff86901c601b6134e1565b905061292b87828885612813565b935093505050935093915050565b60008181526001830160205260408120548015612a2257600061295d6001836134f9565b8554909150600090612971906001906134f9565b90508181146129d65760008660000182815481106129915761299161347d565b90600052602060002001549050808760000184815481106129b4576129b461347d565b6000918252602080832090910192909255918252600188019052604090208390555b85548690806129e7576129e76136ce565b600190038181906000526020600020016000905590558560010160008681526020019081526020016000206000905560019350505050610604565b6000915050610604565b6000612a3782610cbf565b9050612a4581600084611cd5565b612a506000836110db565b6001600160a01b0381166000908152600360205260408120805460019290612a799084906134f9565b909155505060008281526002602052604080822080546001600160a01b0319169055518391906001600160a01b038416907fddf252ad1be2c89b69c2b068fc378daa952ba7f163c4a11628f55a4df523b3ef908390a45050565b60608315612ae2575081610de5565b825115612af25782518084602001fd5b8160405162461bcd60e51b81526004016107049190612f44565b606081612b305750506040805180820190915260018152600360fc1b602082015290565b8160005b8115612b5a5780612b44816134a9565b9150612b539050600a836136fa565b9150612b34565b60008167ffffffffffffffff811115612b7557612b75613216565b6040519080825280601f01601f191660200182016040528015612b9f576020820181803683370190505b5090505b841561168357612bb46001836134f9565b9150612bc1600a8661370e565b612bcc9060306134e1565b60f81b818381518110612be157612be161347d565b60200101906001600160f81b031916908160001a905350612c03600a866136fa565b9450612ba3565b60006001600160e01b031982166380ac58cd60e01b1480612c3b57506001600160e01b03198216635b5e139f60e01b145b8061060457506301ffc9a760e01b6001600160e01b0319831614610604565b60006001612c6784610d36565b612c7191906134f9565b600083815260076020526040902054909150808214612cc4576001600160a01b03841660009081526006602090815260408083208584528252808320548484528184208190558352600790915290208190555b5060009182526007602090815260408084208490556001600160a01b039094168352600681528383209183525290812055565b600854600090612d09906001906134f9565b60008381526009602052604081205460088054939450909284908110612d3157612d3161347d565b906000526020600020015490508060088381548110612d5257612d5261347d565b6000918252602080832090910192909255828152600990915260408082208490558582528120556008805480612d8a57612d8a6136ce565b6001900381819060005260206000200160009055905550505050565b6000612db183610d36565b6001600160a01b039093166000908152600660209081526040808320868452825280832085905593825260079052919091209190915550565b828054612df6906133aa565b90600052602060002090601f016020900481019282612e185760008555612e5e565b82601f10612e3157805160ff1916838001178555612e5e565b82800160010185558215612e5e579182015b82811115612e5e578251825591602001919060010190612e43565b50612e6a929150612ea4565b5090565b508054612e7a906133aa565b6000825580601f10612e8a575050565b601f016020900490600052602060002090810190610c2991905b5b80821115612e6a5760008155600101612ea5565b6001600160e01b031981168114610c2957600080fd5b600060208284031215612ee157600080fd5b8135610de581612eb9565b60005b83811015612f07578181015183820152602001612eef565b83811115610f585750506000910152565b60008151808452612f30816020860160208601612eec565b601f01601f19169290920160200192915050565b602081526000610de56020830184612f18565b600060208284031215612f6957600080fd5b5035919050565b80356001600160a01b0381168114612f8757600080fd5b919050565b60008060408385031215612f9f57600080fd5b612fa883612f70565b946020939093013593505050565b600080600060408486031215612fcb57600080fd5b833567ffffffffffffffff80821115612fe357600080fd5b9085019060c08288031215612ff757600080fd5b9093506020850135908082111561300d57600080fd5b818601915086601f83011261302157600080fd5b81358181111561303057600080fd5b87602082850101111561304257600080fd5b6020830194508093505050509250925092565b60008060006060848603121561306a57600080fd5b61307384612f70565b925061308160208501612f70565b9150604084013590509250925092565b600080604083850312156130a457600080fd5b823591506130b460208401612f70565b90509250929050565b6000602082840312156130cf57600080fd5b610de582612f70565b600080604083850312156130eb57600080fd5b50508035926020909101359150565b8015158114610c2957600080fd5b6000806040838503121561311b57600080fd5b61312483612f70565b91506020830135613134816130fa565b809150509250929050565b6000806020838503121561315257600080fd5b823567ffffffffffffffff8082111561316a57600080fd5b818501915085601f83011261317e57600080fd5b81358181111561318d57600080fd5b8660208260051b85010111156131a257600080fd5b60209290920196919550909350505050565b6000602080830181845280855180835260408601915060408160051b870101925083870160005b8281101561320957603f198886030184526131f7858351612f18565b945092850192908501906001016131db565b5092979650505050505050565b634e487b7160e01b600052604160045260246000fd5b600067ffffffffffffffff8084111561324757613247613216565b604051601f8501601f19908116603f0116810190828211818310171561326f5761326f613216565b8160405280935085815286868601111561328857600080fd5b858560208301376000602087830101525050509392505050565b600080600080608085870312156132b857600080fd5b6132c185612f70565b93506132cf60208601612f70565b925060408501359150606085013567ffffffffffffffff8111156132f257600080fd5b8501601f8101871361330357600080fd5b6133128782356020840161322c565b91505092959194509250565b6000806040838503121561333157600080fd5b61333a83612f70565b9150602083013567ffffffffffffffff81111561335657600080fd5b8301601f8101851361336757600080fd5b6133768582356020840161322c565b9150509250929050565b6000806040838503121561339357600080fd5b61339c83612f70565b91506130b460208401612f70565b600181811c908216806133be57607f821691505b602082108114156133df57634e487b7160e01b600052602260045260246000fd5b50919050565b6000808335601e198436030181126133fc57600080fd5b83018035915067ffffffffffffffff82111561341757600080fd5b602001915036819003821315611f0a57600080fd5b60208082526031908201527f4552433732313a207472616e736665722063616c6c6572206973206e6f74206f6040820152701ddb995c881b9bdc88185c1c1c9bdd9959607a1b606082015260800190565b634e487b7160e01b600052603260045260246000fd5b634e487b7160e01b600052601160045260246000fd5b60006000198214156134bd576134bd613493565b5060010190565b6000602082840312156134d657600080fd5b8151610de5816130fa565b600082198211156134f4576134f4613493565b500190565b60008282101561350b5761350b613493565b500390565b8183823760009101908152919050565b60208082526032908201527f4552433732313a207472616e7366657220746f206e6f6e20455243373231526560408201527131b2b4bb32b91034b6b83632b6b2b73a32b960711b606082015260800190565b60008351613584818460208801612eec565b835190830190613598818360208801612eec565b01949350505050565b7f416363657373436f6e74726f6c3a206163636f756e74200000000000000000008152600083516135d9816017850160208801612eec565b7001034b99036b4b9b9b4b733903937b6329607d1b601791840191820152835161360a816028840160208801612eec565b01602801949350505050565b634e487b7160e01b600052602160045260246000fd5b6000825161363e818460208701612eec565b9190910192915050565b6001600160a01b038581168252841660208201526040810183905260806060820181905260009061228590830184612f18565b60006020828403121561368d57600080fd5b8151610de581612eb9565b60008160001904831182151516156136b2576136b2613493565b500290565b6000816136c6576136c6613493565b506000190190565b634e487b7160e01b600052603160045260246000fd5b634e487b7160e01b600052601260045260246000fd5b600082613709576137096136e4565b500490565b60008261371d5761371d6136e4565b50069056fe416464726573733a206c6f772d6c6576656c2064656c65676174652063616c6c206661696c6564a164736f6c6343000809000a",
  "linkReferences": {},
  "deployedLinkReferences": {}
}